{
  "address": "0xe7f1725E7734CE288F8367e1Bb143E90bb3F0512",
  "abi": [
    {
      "inputs": [
        {
          "internalType": "address",
          "name": "priceFeedAddress",
          "type": "address"
        }
      ],
      "stateMutability": "nonpayable",
      "type": "constructor"
    },
    {
      "inputs": [],
      "name": "FundMe__NotOwner",
      "type": "error"
    },
    {
      "inputs": [],
      "name": "MINIMUM_USD",
      "outputs": [
        {
          "internalType": "uint256",
          "name": "",
          "type": "uint256"
        }
      ],
      "stateMutability": "view",
      "type": "function"
    },
    {
      "inputs": [
        {
          "internalType": "address",
          "name": "",
          "type": "address"
        }
      ],
      "name": "addressToAmountFunded",
      "outputs": [
        {
          "internalType": "uint256",
          "name": "",
          "type": "uint256"
        }
      ],
      "stateMutability": "view",
      "type": "function"
    },
    {
      "inputs": [],
      "name": "fund",
      "outputs": [],
      "stateMutability": "payable",
      "type": "function"
    },
    {
      "inputs": [
        {
          "internalType": "uint256",
          "name": "",
          "type": "uint256"
        }
      ],
      "name": "funders",
      "outputs": [
        {
          "internalType": "address",
          "name": "",
          "type": "address"
        }
      ],
      "stateMutability": "view",
      "type": "function"
    },
    {
      "inputs": [],
      "name": "owner",
      "outputs": [
        {
          "internalType": "address",
          "name": "",
          "type": "address"
        }
      ],
      "stateMutability": "view",
      "type": "function"
    },
    {
      "inputs": [],
      "name": "priceFeed",
      "outputs": [
        {
          "internalType": "contract AggregatorV3Interface",
          "name": "",
          "type": "address"
        }
      ],
      "stateMutability": "view",
      "type": "function"
    },
    {
      "inputs": [],
      "name": "withdraw",
      "outputs": [],
      "stateMutability": "nonpayable",
      "type": "function"
    }
  ],
  "transactionHash": "0xde9d2a969299d30d4397c211a07499b72818eaffe86199c02ab7d33a45c88d83",
  "args": [
    "0x5FbDB2315678afecb367f032d93F642f64180aa3"
  ],
  "numDeployments": 1,
  "solcInputHash": "de15b2a6529486065f4e6b010717bfcc",
  "bytecode": "0x60a06040526802b5e3af16b18800006002553480156200001e57600080fd5b50604051620012a6380380620012a683398181016040528101906200004491906200012d565b3373ffffffffffffffffffffffffffffffffffffffff1660808173ffffffffffffffffffffffffffffffffffffffff1660601b8152505080600360006101000a81548173ffffffffffffffffffffffffffffffffffffffff021916908373ffffffffffffffffffffffffffffffffffffffff160217905550506200015f565b600080fd5b600073ffffffffffffffffffffffffffffffffffffffff82169050919050565b6000620000f582620000c8565b9050919050565b6200010781620000e8565b81146200011357600080fd5b50565b6000815190506200012781620000fc565b92915050565b600060208284031215620001465762000145620000c3565b5b6000620001568482850162000116565b91505092915050565b60805160601c6111216200018560003960008181610193015261045601526111216000f3fe6080604052600436106100705760003560e01c8063741bef1a1161004e578063741bef1a146100f45780638da5cb5b1461011f578063b60d42881461014a578063dc0d3dff1461015457610070565b80633ccfd60b146100755780633e47d6f31461008c5780636b69a592146100c9575b600080fd5b34801561008157600080fd5b5061008a610191565b005b34801561009857600080fd5b506100b360048036038101906100ae91906109b9565b610410565b6040516100c091906109ff565b60405180910390f35b3480156100d557600080fd5b506100de610428565b6040516100eb91906109ff565b60405180910390f35b34801561010057600080fd5b5061010961042e565b6040516101169190610a79565b60405180910390f35b34801561012b57600080fd5b50610134610454565b6040516101419190610aa3565b60405180910390f35b610152610478565b005b34801561016057600080fd5b5061017b60048036038101906101769190610aea565b610630565b6040516101889190610aa3565b60405180910390f35b7f000000000000000000000000000000000000000000000000000000000000000073ffffffffffffffffffffffffffffffffffffffff163373ffffffffffffffffffffffffffffffffffffffff1614610216576040517f579610db00000000000000000000000000000000000000000000000000000000815260040160405180910390fd5b6102556040518060400160405280601281526020017f5769746864726177696e672025732045544800000000000000000000000000008152504761066f565b60005b60008054905081101561030057600080828154811061027a57610279610b17565b5b9060005260206000200160009054906101000a900473ffffffffffffffffffffffffffffffffffffffff1690506000600160008373ffffffffffffffffffffffffffffffffffffffff1673ffffffffffffffffffffffffffffffffffffffff168152602001908152602001600020819055505080806102f890610b75565b915050610258565b50600067ffffffffffffffff81111561031c5761031b610bbe565b5b60405190808252806020026020018201604052801561034a5781602001602082028036833780820191505090505b50600090805190602001906103609291906108af565b5060003373ffffffffffffffffffffffffffffffffffffffff164760405161038790610c1e565b60006040518083038185875af1925050503d80600081146103c4576040519150601f19603f3d011682016040523d82523d6000602084013e6103c9565b606091505b505090508061040d576040517f08c379a000000000000000000000000000000000000000000000000000000000815260040161040490610c90565b60405180910390fd5b50565b60016020528060005260406000206000915090505481565b60025481565b600360009054906101000a900473ffffffffffffffffffffffffffffffffffffffff1681565b7f000000000000000000000000000000000000000000000000000000000000000081565b6104b86040518060400160405280601681526020017f46756e64696e67202573204554482066726f6d20257300000000000000000000815250343361070b565b61050e6040518060400160405280601881526020017f53656e6465722062616c616e63652069732025732045544800000000000000008152503373ffffffffffffffffffffffffffffffffffffffff163161066f565b600254610546600360009054906101000a900473ffffffffffffffffffffffffffffffffffffffff16346107aa90919063ffffffff16565b1015610587576040517f08c379a000000000000000000000000000000000000000000000000000000000815260040161057e90610cfc565b60405180910390fd5b6000339080600181540180825580915050600190039060005260206000200160009091909190916101000a81548173ffffffffffffffffffffffffffffffffffffffff021916908373ffffffffffffffffffffffffffffffffffffffff16021790555034600160003373ffffffffffffffffffffffffffffffffffffffff1673ffffffffffffffffffffffffffffffffffffffff16815260200190815260200160002081905550565b6000818154811061064057600080fd5b906000526020600020016000915054906101000a900473ffffffffffffffffffffffffffffffffffffffff1681565b6107078282604051602401610685929190610da4565b6040516020818303038152906040527fb60e72cc000000000000000000000000000000000000000000000000000000007bffffffffffffffffffffffffffffffffffffffffffffffffffffffff19166020820180517bffffffffffffffffffffffffffffffffffffffffffffffffffffffff83818316178352505050506107e6565b5050565b6107a583838360405160240161072393929190610dd4565b6040516020818303038152906040527f1c7ec448000000000000000000000000000000000000000000000000000000007bffffffffffffffffffffffffffffffffffffffffffffffffffffffff19166020820180517bffffffffffffffffffffffffffffffffffffffffffffffffffffffff83818316178352505050506107e6565b505050565b6000806107b68361080f565b90506000670de0b6b3a764000085836107cf9190610e12565b6107d99190610e9b565b9050809250505092915050565b60008151905060006a636f6e736f6c652e6c6f679050602083016000808483855afa5050505050565b6000808273ffffffffffffffffffffffffffffffffffffffff1663feaf968c6040518163ffffffff1660e01b815260040160a06040518083038186803b15801561085857600080fd5b505afa15801561086c573d6000803e3d6000fd5b505050506040513d601f19601f820116820180604052508101906108909190610f59565b5050509150506402540be400816108a79190610fd4565b915050919050565b828054828255906000526020600020908101928215610928579160200282015b828111156109275782518260006101000a81548173ffffffffffffffffffffffffffffffffffffffff021916908373ffffffffffffffffffffffffffffffffffffffff160217905550916020019190600101906108cf565b5b5090506109359190610939565b5090565b5b8082111561095257600081600090555060010161093a565b5090565b600080fd5b600073ffffffffffffffffffffffffffffffffffffffff82169050919050565b60006109868261095b565b9050919050565b6109968161097b565b81146109a157600080fd5b50565b6000813590506109b38161098d565b92915050565b6000602082840312156109cf576109ce610956565b5b60006109dd848285016109a4565b91505092915050565b6000819050919050565b6109f9816109e6565b82525050565b6000602082019050610a1460008301846109f0565b92915050565b6000819050919050565b6000610a3f610a3a610a358461095b565b610a1a565b61095b565b9050919050565b6000610a5182610a24565b9050919050565b6000610a6382610a46565b9050919050565b610a7381610a58565b82525050565b6000602082019050610a8e6000830184610a6a565b92915050565b610a9d8161097b565b82525050565b6000602082019050610ab86000830184610a94565b92915050565b610ac7816109e6565b8114610ad257600080fd5b50565b600081359050610ae481610abe565b92915050565b600060208284031215610b0057610aff610956565b5b6000610b0e84828501610ad5565b91505092915050565b7f4e487b7100000000000000000000000000000000000000000000000000000000600052603260045260246000fd5b7f4e487b7100000000000000000000000000000000000000000000000000000000600052601160045260246000fd5b6000610b80826109e6565b91507fffffffffffffffffffffffffffffffffffffffffffffffffffffffffffffffff821415610bb357610bb2610b46565b5b600182019050919050565b7f4e487b7100000000000000000000000000000000000000000000000000000000600052604160045260246000fd5b600081905092915050565b50565b6000610c08600083610bed565b9150610c1382610bf8565b600082019050919050565b6000610c2982610bfb565b9150819050919050565b600082825260208201905092915050565b7f43616c6c2066616c696564000000000000000000000000000000000000000000600082015250565b6000610c7a600b83610c33565b9150610c8582610c44565b602082019050919050565b60006020820190508181036000830152610ca981610c6d565b9050919050565b7f596f75206e65656420746f207370656e64206d6f726520455448210000000000600082015250565b6000610ce6601b83610c33565b9150610cf182610cb0565b602082019050919050565b60006020820190508181036000830152610d1581610cd9565b9050919050565b600081519050919050565b60005b83811015610d45578082015181840152602081019050610d2a565b83811115610d54576000848401525b50505050565b6000601f19601f8301169050919050565b6000610d7682610d1c565b610d808185610c33565b9350610d90818560208601610d27565b610d9981610d5a565b840191505092915050565b60006040820190508181036000830152610dbe8185610d6b565b9050610dcd60208301846109f0565b9392505050565b60006060820190508181036000830152610dee8186610d6b565b9050610dfd60208301856109f0565b610e0a6040830184610a94565b949350505050565b6000610e1d826109e6565b9150610e28836109e6565b9250817fffffffffffffffffffffffffffffffffffffffffffffffffffffffffffffffff0483118215151615610e6157610e60610b46565b5b828202905092915050565b7f4e487b7100000000000000000000000000000000000000000000000000000000600052601260045260246000fd5b6000610ea6826109e6565b9150610eb1836109e6565b925082610ec157610ec0610e6c565b5b828204905092915050565b600069ffffffffffffffffffff82169050919050565b610eeb81610ecc565b8114610ef657600080fd5b50565b600081519050610f0881610ee2565b92915050565b6000819050919050565b610f2181610f0e565b8114610f2c57600080fd5b50565b600081519050610f3e81610f18565b92915050565b600081519050610f5381610abe565b92915050565b600080600080600060a08688031215610f7557610f74610956565b5b6000610f8388828901610ef9565b9550506020610f9488828901610f2f565b9450506040610fa588828901610f44565b9350506060610fb688828901610f44565b9250506080610fc788828901610ef9565b9150509295509295909350565b6000610fdf82610f0e565b9150610fea83610f0e565b9250827f7fffffffffffffffffffffffffffffffffffffffffffffffffffffffffffffff048211600084136000841316161561102957611028610b46565b5b817f8000000000000000000000000000000000000000000000000000000000000000058312600084126000841316161561106657611065610b46565b5b827f800000000000000000000000000000000000000000000000000000000000000005821260008413600084121616156110a3576110a2610b46565b5b827f7fffffffffffffffffffffffffffffffffffffffffffffffffffffffffffffff05821260008412600084121616156110e0576110df610b46565b5b82820290509291505056fea26469706673582212201275d0ef6e1a7461202f8ae5ce024ac3e6068f520f0a43534baad9abd37086ac64736f6c63430008080033",
  "devdoc": {
    "author": "Aleksandr Molodykh",
    "details": "This implements price feeds as our library",
    "kind": "dev",
    "methods": {
      "fund()": {
        "details": "This implements price feeds as our library"
      }
    },
    "title": "A contract for crowdfunding",
    "version": 1
  },
  "userdoc": {
    "kind": "user",
    "methods": {
      "fund()": {
        "notice": "This function funds this contract"
      }
    },
    "notice": "This contract is to demo a sample funding contract",
    "version": 1
  },
  "storageLayout": {
    "storage": [
      {
        "astId": 59,
        "contract": "contracts/FundMe.sol:FundMe",
        "label": "funders",
        "offset": 0,
        "slot": "0",
        "type": "t_array(t_address)dyn_storage"
      },
      {
        "astId": 63,
        "contract": "contracts/FundMe.sol:FundMe",
        "label": "addressToAmountFunded",
        "offset": 0,
        "slot": "1",
        "type": "t_mapping(t_address,t_uint256)"
      },
      {
        "astId": 68,
        "contract": "contracts/FundMe.sol:FundMe",
        "label": "MINIMUM_USD",
        "offset": 0,
        "slot": "2",
        "type": "t_uint256"
      },
      {
        "astId": 73,
        "contract": "contracts/FundMe.sol:FundMe",
        "label": "priceFeed",
        "offset": 0,
        "slot": "3",
        "type": "t_contract(AggregatorV3Interface)45"
      }
    ],
    "types": {
      "t_address": {
        "encoding": "inplace",
        "label": "address",
        "numberOfBytes": "20"
      },
      "t_array(t_address)dyn_storage": {
        "base": "t_address",
        "encoding": "dynamic_array",
        "label": "address[]",
        "numberOfBytes": "32"
      },
      "t_contract(AggregatorV3Interface)45": {
        "encoding": "inplace",
        "label": "contract AggregatorV3Interface",
        "numberOfBytes": "20"
      },
      "t_mapping(t_address,t_uint256)": {
        "encoding": "mapping",
        "key": "t_address",
        "label": "mapping(address => uint256)",
        "numberOfBytes": "32",
        "value": "t_uint256"
      },
      "t_uint256": {
        "encoding": "inplace",
        "label": "uint256",
        "numberOfBytes": "32"
      }
    }
  }
}